:020000040800F2
:100000000028002019110008290F00082F0F0008F0
:10001000350F00083B0F0008410F000800000000EA
:10002000000000000000000000000000470F000872
:10003000530F0008000000005F0F00086B0F00085E
:1000400061110008611100086111000861110008C8
:1000500061110008611100086111000861110008B8
:1000600061110008611100086111000861110008A8
:100070006111000861110008611100086111000898
:100080006111000861110008611100086111000888
:100090006111000861110008611100086111000878
:1000A0006111000861110008611100086111000868
:1000B000790F0008611100080000000061110008BC
:1000C000611100080000000000000000611100083C
:1000D000000000006111000861110008000000002C
:1000E00061110008611100086111000800000000A2
:1000F0000000000000000000000000000000000000
:0C01000000000000000000005FF808F1A3
:10010C0010B5054C237833B9044B13B10448AFF345
:10011C0000800123237010BD50000020000000005F
:10012C009027000808B5034B1BB103490348AFF3F4
:10013C00008008BD0000000054000020902700083B
:10014C0080B483B000AF7860094A7B6813441B7895
:10015C00012B06D1064A7B68134400221A70012336
:10016C0000E0002318460C37BD4680BC704700BF2A
:10017C007C00002080B582B000AF00237B6078E06B
:10018C00404A7B68134419783F4A7B6813440A46FB
:10019C001A703E4A7B68134419783A4A7B681344B8
:1001AC000A461A703A4A7B6852F8232039497B6810
:1001BC0031F813301946104601F0B8FA03461946C7
:1001CC00324A7B6813440A461A702F4A7B681344E0
:1001DC001A782C497B680B441B789A4246D1294AE1
:1001EC007B6813441A7829497B680B441B789A4224
:1001FC003CD1294A7B6813441A7824497B680B4408
:10020C001B789A4219D0214A7B6813441978224AE8
:10021C007B6813440A461A701F4A7B6813441B7888
:10022C00002B23D11D4A7B68134401221A701C4AEF
:10023C007B68002142F8231018E0194A7B6852F8B9
:10024C0023305A1C16497B6841F82320144A7B68DA
:10025C0052F82330182B09DD0F4A7B681344012216
:10026C001A700F4A7B68002142F823107B68013317
:10027C007B607B68022B83DD00BF00BF0837BD4667
:10028C0080BD00BF740000207000002078000020AA
:10029C00000000200C0000206C0000207C000020DE
:1002AC008000002080B500AFB94B1B68013B042BCC
:1002BC0000F2828101A252F823F000BFDD02000897
:1002CC0027030008B503000863040008F1040008C4
:1002DC0000F010FFAE4B02221A60AE4B1B681946A1
:1002EC00012000F05BFDAC4B1B681946022000F0AE
:1002FC0055FD0A21032000F051FD0A21042000F0D5
:10030C004DFDA64B1B68A64A1360A64B1B68A64A5C
:10031C001360A64B00221A6057E100F037FE00F084
:10032C008FFE00F005FC0020FFF70AFF0346012BAF
:10033C0002D1974B0A221A600120FFF701FF02201D
:10034C00FFF7FEFE022000F049FD0346012B0CD105
:10035C008F4B03221A60964B1B681946022000F043
:10036C001DFD944B1B68904A1360032000F036FD72
:10037C000346012B40F022814FF47A71032000F0E8
:10038C000DFD874B1B68013B854A1360864B1B6830
:10039C00013B854A1360824B1B68834A12681146E5
:1003AC00184600F0B9FA09E100F0F0FD00F036FE55
:1003BC0000F0BEFB0020FFF7C3FE0346012B02D169
:1003CC00734B0A221A600120FFF7BAFE0220FFF7D6
:1003DC00B7FE012000F002FD0346012B1CD10220C8
:1003EC0000F0FCFC0346012B16D1694B04221A6069
:1003FC00694B1B681946012000F0D0FC654B1B684B
:10040C001946022000F0CAFC664B1B68644A136054
:10041C00624B1B68644A1360032000F0DFFC034648
:10042C00012B40F0CD804FF47A71032000F0B6FC24
:10043C005B4B1B68013B5A4A13605B4B1B68013BCF
:10044C00594A1360564B1B68574A12681146184696
:10045C0000F062FAB4E000F0BDFD00F0CDFD00F05C
:10046C0067FB0020FFF76CFE0346012B02D1484BC3
:10047C000A221A600120FFF763FE0220FFF760FEDC
:10048C00012000F0ABFC0346012B0CD1404B0522A4
:10049C001A60474B1B681946012000F07FFC454B46
:1004AC001B683F4A1360032000F098FC0346012BA5
:1004BC0040F088804FF47A71032000F06FFC384BC9
:1004CC001B68013B364A1360374B1B68013B364AAD
:1004DC001360334B1B68344A12681146184600F0FF
:1004EC001BFA6FE000F064FD00F086FD00F020FBCD
:1004FC000020FFF725FE0346012B02D1244B0A22D4
:10050C001A600120FFF71CFE0220FFF719FE0120E4
:10051C0000F064FC0346012B1CD1022000F05EFCB1
:10052C000346012B16D11A4B02221A60194B1B6879
:10053C001946012000F032FC174B1B6819460220AB
:10054C0000F02CFC154B1B68154A1360154B1B68EF
:10055C00154A1360032000F041FC0346012B33D1F4
:10056C004FF47A71032000F019FC0D4B1B68013B12
:10057C000B4A13600C4B1B68013B0B4A1360084B76
:10058C001B68094A12681146184600F0C5F91BE0B1
:10059C008C000020300000203800002024000020B7
:1005AC003C0000202C000020400000209000002087
:1005BC00340000202800002000BF06E000BF04E04B
:1005CC0000BF02E000BF00E000BF00BF80BD00BF65
:1005DC0080B500AFAF4B1B680A3B042B00F24F8178
:1005EC0001A252F823F000BF0906000875060008A6
:1005FC0013070008AF0700084308000800F07AFD55
:10060C00A54B00221A600A21002000F0C7FB0A212A
:10061C00042000F0C3FB0020FFF792FD0346012BE2
:10062C0006D19C4B0B221A6000F0B0FC00F0E4FCED
:10063C000120FFF785FD0220FFF782FD0346012B09
:10064C0040F01F81954B1B68954A1360954B1B68B6
:10065C00954A1360954B1B68954A136000F032F96C
:10066C008C4B01221A600CE1924B1B68194601203D
:10067C0000F052F900F05CFA002000F0AFFB0346EA
:10068C00012B09D18C4B1B681946002000F086FB0E
:10069C0000F0E8FC00F00AFD0020FFF751FD0346D6
:1006AC00012B06D17B4B0C221A6000F081FC00F070
:1006BC00B5FC0120FFF744FD0346012B18D17D4BFF
:1006CC001B6801337B4A136004E07A4B1B6863336D
:1006DC00784A1360774B1B68002BF6DD04E0754BF2
:1006EC001B68633B734A1360724B1B68632BF6DC0D
:1006FC000220FFF725FD0346012B40F0C480654B1B
:10070C000E221A60BFE06D4B1B681946022000F0E8
:10071C0003F900F00DFA002000F060FB0346012BFA
:10072C0009D1654B1B681946002000F037FB00F01F
:10073C00A5FC00F0C7FC0020FFF702FD0346012BCF
:10074C0006D1544B0D221A6000F044FC00F078FCEA
:10075C000120FFF7F5FC0346012B18D1574B1B6802
:10076C000133564A136004E0544B1B686333534AFD
:10077C001360524B1B68002BF6DD04E04F4B1B68DB
:10078C00633B4E4A13604D4B1B68632BF6DC022017
:10079C00FFF7D6FC0346012B77D13E4B0E221A6095
:1007AC0073E0474B1B681946032000F0B5F800F0C6
:1007BC00BFF9002000F012FB0346012B09D13E4B80
:1007CC001B681946002000F0E9FA00F063FC00F009
:1007DC0085FC0020FFF7B4FC0346012B02D12D4B06
:1007EC000A221A600120FFF7ABFC0346012B18D13B
:1007FC00334B1B680133324A136004E0304B1B68E7
:10080C0063332F4A13602E4B1B68002BF6DD04E07C
:10081C002B4B1B68633B2A4A1360294B1B68632BC9
:10082C00F6DC0220FFF78CFC0346012B2FD1194B71
:10083C000E221A602BE0214B1A68214B1B681A44BC
:10084C001C4B1B689A420DD11A4B1B68144A13603F
:10085C001A4B1B68144A1360194B1B68144A13601B
:10086C0000F030F8134B01221A60144B01221A606D
:10087C00134B01221A60074B01221A6008E000BFDB
:10088C0006E000BF04E000BF02E000BF00E000BFD4
:10089C0000BF80BD8C00002090000020A82700081D
:1008AC0024000020AC27000828000020B0270008F6
:1008BC002C00002014000020200000201800002034
:1008CC001C00002080B400AF0D4B1B684FF47A72F3
:1008DC0002FB03F30B4A13600B4B1B684FF47A7249
:1008EC0002FB03F3094A1360094B1B684FF47A723D
:1008FC0002FB03F3074A136000BFBD4680BC704780
:10090C0024000020300000202800002034000020AB
:10091C002C0000203800002080B483B000AF786039
:10092C0039607B68184A82FB03129210DB17D31ACA
:10093C00164A13607968144B83FB01239A10CB176A
:10094C00D21A13469B0013445B00CA1A0F4B5A6011
:10095C003B680D4A82FB03129210DB17D31A0B4A29
:10096C0093603968084B83FB01239A10CB17D21A7A
:10097C0013469B0013445B00CA1A044BDA6000BF99
:10098C000C37BD4680BC70476766666694000020D5
:10099C0080B582B000AF78607B68032B52D801A27F
:1009AC0052F823F0C1090008E5090008090A0008FB
:1009BC002D0A000800224FF48061254800F0CDFE7E
:1009CC0001224FF46051224800F0C7FE214B1B68F6
:1009DC00184600F041F836E000224FF400611C4844
:1009EC0000F0BBFE01224FF45051194800F0B5FE47
:1009FC00184B5B68184600F02FF824E000224FF4E7
:100A0C008051134800F0A9FE01224FF430511048D8
:100A1C0000F0A3FE0F4B9B68184600F01DF812E087
:100A2C0000224FF400510A4800F097FE01224FF4C7
:100A3C00E051074800F091FE064BDB68184600F0C9
:100A4C000BF800E000BF00BF0837BD4680BD00BFFB
:100A5C00000801409400002080B582B000AF78609F
:100A6C0001227F21314800F078FE7B68092B53D896
:100A7C0001A252F823F000BFAD0A0008B90A000821
:100A8C00C50A0008D10A0008DD0A0008E90A0008B6
:100A9C00F50A0008010B00080D0B0008190B0008E3
:100AAC0000223F21214800F058FE3BE000220621A5
:100ABC001E4800F052FE35E000225B211B4800F07E
:100ACC004CFE2FE000224F21184800F046FE29E092
:100ADC0000226621154800F040FE23E000226D2123
:100AEC00124800F03AFE1DE000227D210F4800F074
:100AFC0034FE17E0002207210C4800F02EFE11E016
:100B0C0000227F21094800F028FE0BE000226F2113
:100B1C00064800F022FE05E000224021034800F0C8
:100B2C001CFE00BF00BF0837BD4680BD000C014055
:100B3C0080B500AF042000F051F90346012B13D10E
:100B4C00FA21042000F02AF9084B1B681846FFF71D
:100B5C001FFF064B1B680133042293FBF2F102FBCF
:100B6C0001F29B1A014A136000BF80BD9000002067
:100B7C0080B500AF00F0F0FA00F014F800F04EF879
:100B8C0000F098F8054801F045FA054B01221A606F
:100B9C00FFF788FBFFF71CFDFAE700BFA40000205D
:100BAC008C00002080B590B000AF07F1180328220C
:100BBC000021184601F0DEFD3B1D00221A605A6030
:100BCC009A60DA601A610223BB610123BB621023B5
:100BDC00FB6200237B6307F11803184600F0EEFD5F
:100BEC000346002B01D000F0D3F80F237B600023C9
:100BFC00BB600023FB6000233B6100237B613B1D3A
:100C0C000021184601F05AF80346002B01D000F0E1
:100C1C00BFF800BF4037BD4680BD000080B586B030
:100C2C0000AF07F1080300221A605A609A60DA607C
:100C3C003B4600221A605A601D4B4FF080421A60EE
:100C4C001B4B41F63F725A60194B00229A60184BAD
:100C5C000922DA60164B00221A61154B00229A61A8
:100C6C00134801F087F90346002B01D000F090F8EF
:100C7C004FF48053BB6007F1080319460C4801F090
:100C8C0005FB0346002B01D000F082F800233B60EB
:100C9C0000237B603B461946054801F0DDFC03460A
:100CAC00002B01D000F074F800BF1837BD4680BD92
:100CBC00A400002080B586B000AF07F10803002225
:100CCC001A605A609A60DA60284B9B69274A43F095
:100CDC0004039361254B9B6903F004037B607B68E1
:100CEC00224B9B69214A43F0080393611F4B9B697C
:100CFC0003F008033B603B6800224FF67F411C4821
:100D0C0000F02BFD00224FF470511A4800F025FD25
:100D1C001E23BB600023FB6001233B6107F108032A
:100D2C001946144800F088FB4FF67F43BB60012343
:100D3C00FB6000233B6102237B6107F1080319462A
:100D4C000B4800F079FB4FF47053BB600123FB6040
:100D5C0000233B6102237B6107F108031946054818
:100D6C0000F06AFB00BF1837BD4680BD0010024082
:100D7C00000C01400008014080B582B000AF7860E3
:100D8C0000F046F8FFF7F6F900BF0837BD4680BD06
:100D9C0080B400AF72B600BFFEE7000080B483B031
:100DAC0000AF786039603B68094A82FB03129210ED
:100DBC00DB17D21A07497B6841F82320064A7B6867
:100DCC00002142F8231000BF0C37BD4680BC704791
:100DDC0067666666EC0000200001002080B483B0DA
:100DEC0000AF7860094A7B6852F82330012B06D19A
:100DFC00064A7B68002142F82310012300E00023FF
:100E0C0018460C37BD4680BC704700BF000100205F
:100E1C0080B483B000AF00237B601CE0124A7B6877
:100E2C0052F82330002B13DD0F4A7B6852F8233025
:100E3C005A1E0D497B6841F823200B4A7B6852F8F7
:100E4C002330002B04D1094A7B68012142F823107E
:100E5C007B6801337B607B68042BDFDD00BF00BF48
:100E6C000C37BD4680BC7047EC0000200001002010
:100E7C0080B485B000AF154B9B69144A43F0010355
:100E8C009361124B9B6903F00103BB60BB680F4B72
:100E9C00DB690E4A43F08053D3610C4BDB6903F0E2
:100EAC0080537B607B680A4B5B68FB60FB6823F0BC
:100EBC00E063FB60FB6843F08063FB60044AFB6803
:100ECC00536000BF1437BD4680BC70470010024011
:100EDC000000014080B584B000AF78607B681B686F
:100EEC00B3F1804F13D10C4BDB690B4A43F0010378
:100EFC00D361094BDB6903F00103FB60FB68002243
:100F0C0000211C2000F061FA1C2000F07AFA00BFCE
:100F1C001037BD4680BD00BF0010024080B400AF4A
:100F2C00FEE780B400AFFEE780B400AFFEE780B40C
:100F3C0000AFFEE780B400AFFEE780B400AF00BFA7
:100F4C00BD4680BC704780B400AF00BFBD4680BCBE
:100F5C00704780B400AF00BFBD4680BC704780B501
:100F6C0000AF00F03FF900BF80BD000080B500AFBE
:100F7C00024801F09BF800BF80BD00BFA400002018
:100F8C0080B400AF00BFBD4680BC704780B500AFD9
:100F9C0001224FF48061054800F0DFFB00224FF482
:100FAC00C051024800F0D9FB00BF80BD000C0140CD
:100FBC0080B500AF01224FF40061054800F0CDFB75
:100FCC0000224FF4A051024800F0C7FB00BF80BDC7
:100FDC00000C014080B500AF01224FF48051054850
:100FEC0000F0BBFB00224FF44061024800F0B5FB5F
:100FFC0000BF80BD000C014080B500AF01224FF452
:10100C000051054800F0A9FB00224FF44041024872
:10101C0000F0A3FB00BF80BD000C014080B500AF09
:10102C0001224FF48041054800F097FB00224FF459
:10103C002041024800F091FB00BF80BD000C014034
:10104C0080B500AF01224FF40041054800F085FB4C
:10105C0000224FF4C041024800F07FFB00BF80BD6E
:10106C00000C014080B500AF4FF48061024800F0E5
:10107C008CFB00BF80BD00BF000C014080B500AFF1
:10108C004FF40061024800F080FB00BF80BD00BF40
:10109C00000C014080B500AF4FF48051024800F0C5
:1010AC0074FB00BF80BD00BF000C014080B500AFD9
:1010BC004FF40051024800F068FB00BF80BD00BF38
:1010CC00000C014080B500AF4FF48041024800F0A5
:1010DC005CFB00BF80BD00BF000C014080B500AFC1
:1010EC004FF40041024800F050FB00BF80BD00BF30
:1010FC00000C014080B500AF00224FF47C41024847
:10110C0000F02BFB00BF80BD000C0140FFF738FF47
:10111C000B480C490C4A002302E0D458C450043349
:10112C00C4188C42F9D3094A094C002301E013601E
:10113C000432A242FBD301F0F9FAFFF719FD704714
:10114C000000002050000020E02700085000002084
:10115C0018010020FEE7000080B500AF084B1B68AB
:10116C00074A43F010031360032000F023F90F200B
:10117C0000F008F8FFF77CFE0023184680BD00BF86
:10118C000020024080B582B000AF7860124B1A6824
:10119C00124B1B7819464FF47A73B3FBF1F3B2FB85
:1011AC00F3F3184600F03BF90346002B01D0012362
:1011BC000EE07B680F2B0AD8002279684FF0FF30C5
:1011CC0000F003F9064A7B681360002300E001235A
:1011DC0018460837BD4680BD440000204C00002056
:1011EC004800002080B400AF054B1B781A46054B15
:1011FC001B681344034A136000BFBD4680BC704794
:10120C004C0000201401002080B400AF024B1B687E
:10121C001846BD4680BC70471401002080B485B0D0
:10122C0000AF78607B6803F00703FB600C4BDB6856
:10123C00BB60BA684FF6FF031340BB60FB681A0231
:10124C00BB68134343F0BF6343F40033BB60044AF1
:10125C00BB68D36000BF1437BD4680BC704700BF6D
:10126C0000ED00E080B400AF044BDB681B0A03F018
:10127C0007031846BD4680BC704700BF00ED00E078
:10128C0080B483B000AF0346FB7197F90730002B95
:10129C000BDBFB7903F01F02064997F907305B095A
:1012AC00012000FA02F241F8232000BF0C37BD46A2
:1012BC0080BC704700E100E080B483B000AF03460F
:1012CC003960FB7197F90730002B0ADB3B68DAB207
:1012DC000C4997F907301201D2B20B4483F8002362
:1012EC000AE03B68DAB20849FB7903F00F03043BD0
:1012FC001201D2B20B441A7600BF0C37BD4680BC2B
:10130C00704700BF00E100E000ED00E080B489B060
:10131C0000AFF860B9607A60FB6803F00703FB610B
:10132C00FB69C3F10703042B28BF0423BB61FB69D2
:10133C000433062B02D9FB69033B00E000237B61DD
:10134C004FF0FF32BB6902FA03F3DA43BB681A4071
:10135C007B699A404FF0FF317B6901FA03F3D94363
:10136C007B680B40134318462437BD4680BC70473E
:10137C0080B582B000AF78607B68013BB3F1807FB1
:10138C0001D301230FE00A4A7B68013B53600F2114
:10139C004FF0FF30FFF790FF054B00229A60044B93
:1013AC0007221A60002318460837BD4680BD00BFCF
:1013BC0010E000E080B582B000AF78607868FFF78D
:1013CC002DFF00BF0837BD4680BD80B586B000AF8D
:1013DC000346B9607A60FB7300237B61FFF742FF21
:1013EC0078617A68B9687869FFF790FF024697F9D7
:1013FC000F3011461846FFF75FFF00BF1837BD4688
:10140C0080BD80B582B000AF0346FB7197F9073001
:10141C001846FFF735FF00BF0837BD4680BD80B5C5
:10142C0082B000AF78607868FFF7A2FF03461846D9
:10143C000837BD4680BD000080B48BB000AF78602B
:10144C00396000237B6200233B6248E101227B6A06
:10145C0002FA03F3FB613B681B68FA691340BB613A
:10146C00BA69FB699A4240F037813B685B68A34AD2
:10147C0093425ED0A14A934275D8A14A934258D068
:10148C009F4A93426FD89F4A934252D09D4A9342AF
:10149C0069D89D4A93424CD09B4A934263D89B4A4D
:1014AC00934246D0994A93425DD8122B2AD8122BDC
:1014BC0059D801A252F823F03F150008191500085D
:1014CC002B1500086D15000873150008731500081E
:1014DC0073150008731500087315000873150008C0
:1014EC0073150008731500087315000873150008B0
:1014FC0073150008731500087315000821150008F2
:10150C0035150008824A934213D02CE03B68DB6807
:10151C003B6229E03B68DB6804333B6224E03B68B8
:10152C00DB6808333B621FE03B68DB680C333B62D3
:10153C001AE03B689B68002B02D104233B6213E04A
:10154C003B689B68012B05D108233B627B68FA69D9
:10155C001A6109E008233B627B68FA695A6103E06F
:10156C0000233B6200E000BFBB69FF2B01D87B6806
:10157C0001E07B6804337B61BB69FF2B02D87B6A7B
:10158C009B0002E07B6A083B9B003B617B691A680D
:10159C000F213B6901FA03F3DB431A40396A3B69BB
:1015AC0001FA03F31A437B691A603B685B6803F02A
:1015BC008053002B00F09080564B9B69554A43F0AA
:1015CC0001039361534B9B6903F00103BB60BB6840
:1015DC00514A7B6A9B08023352F82330FB607B6ACA
:1015EC0003F003039B000F2202FA03F3DB43FA68B8
:1015FC001340FB607B68494A93420DD07B68484A94
:10160C00934207D07B68474A934201D1022304E0FE
:10161C00032302E0012300E000237A6A02F00302B4
:10162C0092009340FA681343FB603B497B6A9B082A
:10163C000233FA6841F823203B685B6803F480139B
:10164C00002B06D0384B9A683749BB6913438B6023
:10165C0006E0354B9A68BB69DB43334913408B601A
:10166C003B685B6803F40013002B06D02E4BDA6842
:10167C002D49BB691343CB6006E02B4BDA68BB6981
:10168C00DB4329491340CB603B685B6803F40033B0
:10169C00002B06D0244B5A682349BB6913434B607B
:1016AC0006E0214B5A68BB69DB431F4913404B6072
:1016BC003B685B6803F48033002B06D01A4B1A6826
:1016CC001949BB6913430B6006E0174B1A68BB69D9
:1016DC00DB43154913400B607B6A01337B623B682B
:1016EC001A687B6A22FA03F3002B7FF4AFAE00BFBB
:1016FC0000BF2C37BD4680BC704700BF00003210C5
:10170C000000311000002210000021100000121007
:10171C0000001110001002400000014000080140C0
:10172C00000C0140001001400004014080B485B061
:10173C0000AF78600B467B807B689A687B8813408F
:10174C00002B02D00123FB7301E00023FB73FB7B16
:10175C0018461437BD4680BC704780B483B000AFC8
:10176C0078600B467B8013467B707B78002B03D014
:10177C007A887B681A6103E07B881A047B681A619B
:10178C0000BF0C37BD4680BC704780B485B000AF3D
:10179C0078600B467B807B68DB68FB607A88FB6833
:1017AC0013401A04FB68D9437B880B401A437B68AF
:1017BC001A6100BF1437BD4680BC704780B586B037
:1017CC0000AF78607B68002B01D101236CE27B6851
:1017DC001B6803F00103002B00F08780924B5B68C1
:1017EC0003F00C03042B0CD08F4B5B6803F00C0341
:1017FC00082B12D18C4B5B6803F48033B3F5803F1C
:10180C000BD1894B1B6803F40033002B6CD07B6825
:10181C005B68002B68D1012346E27B685B68B3F5FB
:10182C00803F06D1804B1B687F4A43F480331360A2
:10183C002EE07B685B68002B0CD17B4B1B687A4AD3
:10184C0023F480331360784B1B68774A23F480238E
:10185C0013601DE07B685B68B3F5A02F0CD1724B55
:10186C001B68714A43F4802313606F4B1B686E4AEC
:10187C0043F4803313600BE06B4B1B686A4A23F410
:10188C0080331360684B1B68674A23F48023136012
:10189C007B685B68002B13D0FFF7B6FC386108E05F
:1018AC00FFF7B2FC02463B69D31A642B01D9032320
:1018BC00FAE15D4B1B6803F40033002BF0D014E00D
:1018CC00FFF7A2FC386108E0FFF79EFC02463B697B
:1018DC00D31A642B01D90323E6E1534B1B6803F4A1
:1018EC000033002BF0D100E000BF7B681B6803F0D5
:1018FC000203002B63D04C4B5B6803F00C03002BF2
:10190C000BD0494B5B6803F00C03082B1CD1464BE6
:10191C005B6803F48033002B16D1434B1B6803F038
:10192C000203002B05D07B681B69012B01D001231E
:10193C00BAE13D4B1B6823F0F8027B685B69DB0066
:10194C00394913430B603AE07B681B69002B20D0AC
:10195C00364B01221A60FFF757FC386108E0FFF79D
:10196C0053FC02463B69D31A022B01D903239BE19A
:10197C002D4B1B6803F00203002BF0D02A4B1B6885
:10198C0023F0F8027B685B69DB00274913430B608B
:10199C0015E0264B00221A60FFF736FC386108E090
:1019AC00FFF732FC02463B69D31A022B01D9032301
:1019BC007AE11D4B1B6803F00203002BF0D17B680E
:1019CC001B6803F00803002B3AD07B689B69002B43
:1019DC0019D0174B01221A60FFF716FC386108E08A
:1019EC00FFF712FC02463B69D31A022B01D90323E1
:1019FC005AE10D4B5B6A03F00203002BF0D001207F
:101A0C0000F09AFA1CE00A4B00221A60FFF7FCFB6C
:101A1C0038610FE0FFF7F8FB02463B69D31A022B43
:101A2C0008D9032340E100BF0010024000004242ED
:101A3C00800442429E4B5B6A03F00203002BE9D107
:101A4C007B681B6803F00403002B00F0A6800023C6
:101A5C00FB75974BDB6903F08053002B0DD1944B36
:101A6C00DB69934A43F08053D361914BDB6903F0FC
:101A7C008053BB60BB680123FB758E4B1B6803F462
:101A8C008073002B18D18B4B1B688A4A43F48073EC
:101A9C001360FFF7B9FB386108E0FFF7B5FB0246AE
:101AAC003B69D31A642B01D90323FDE0814B1B68DE
:101ABC0003F48073002BF0D07B68DB68012B06D11C
:101ACC007B4B1B6A7A4A43F0010313622DE07B685F
:101ADC00DB68002B0CD1764B1B6A754A23F0010393
:101AEC001362734B1B6A724A23F0040313621CE0EB
:101AFC007B68DB68052B0CD16D4B1B6A6C4A43F081
:101B0C00040313626A4B1B6A694A43F001031362B4
:101B1C000BE0674B1B6A664A23F001031362644BAC
:101B2C001B6A634A23F0040313627B68DB68002B97
:101B3C0015D0FFF769FB38610AE0FFF765FB024639
:101B4C003B69D31A41F28832934201D90323ABE0AB
:101B5C00574B1B6A03F00203002BEED014E0FFF787
:101B6C0053FB38610AE0FFF74FFB02463B69D31A7F
:101B7C0041F28832934201D9032395E04C4B1B6A06
:101B8C0003F00203002BEED1FB7D012B05D1484B5A
:101B9C00DB69474A23F08053D3617B68DB69002BF8
:101BAC0000F08180424B5B6803F00C03082B61D082
:101BBC007B68DB69022B46D13F4B00221A60FFF792
:101BCC0023FB386108E0FFF71FFB02463B69D31A81
:101BDC00022B01D9032367E0354B1B6803F000731C
:101BEC00002BF0D17B681B6AB3F5803F08D1304BDA
:101BFC005B6823F400327B689B682D4913434B6070
:101C0C002B4B5B6823F474127B68196A7B685B6AE4
:101C1C000B43274913434B60274B01221A60FFF7F4
:101C2C00F3FA386108E0FFF7EFFA02463B69D31A82
:101C3C00022B01D9032337E01D4B1B6803F0007303
:101C4C00002BF0D02FE01C4B00221A60FFF7DCFABF
:101C5C00386108E0FFF7D8FA02463B69D31A022B29
:101C6C0001D9032320E0124B1B6803F00073002BF7
:101C7C00F0D118E07B68DB69012B01D1012313E063
:101C8C000B4B5B68FB60FB6803F480327B681B6A60
:101C9C009A4206D1FB6803F470127B685B6A9A4225
:101CAC0001D0012300E0002318461837BD4680BD43
:101CBC0000100240007000406000424280B584B0C9
:101CCC0000AF786039607B68002B01D10123D0E034
:101CDC006A4B1B6803F007033A689A4210D9674BAA
:101CEC001B6823F0070265493B6813430B60634B89
:101CFC001B6803F007033A689A4201D00123B8E04D
:101D0C007B681B6803F00203002B20D07B681B68E8
:101D1C0003F00403002B05D0594B5B68584A43F47D
:101D2C00E06353607B681B6803F00803002B05D04D
:101D3C00534B5B68524A43F460535360504B5B689F
:101D4C0023F0F0027B689B684D4913434B607B6822
:101D5C001B6803F00103002B40D07B685B68012BF0
:101D6C0007D1474B1B6803F40033002B15D101231B
:101D7C007FE07B685B68022B07D1414B1B6803F04B
:101D8C000073002B09D1012373E03D4B1B6803F05A
:101D9C000203002B01D101236BE0394B5B6823F06C
:101DAC0003027B685B68364913434B60FFF72CFAE0
:101DBC00F8600AE0FFF728FA0246FB68D31A41F2F2
:101DCC008832934201D9032353E02D4B5B6803F017
:101DDC000C027B685B689B009A42EBD1274B1B681B
:101DEC0003F007033A689A4210D2244B1B6823F085
:101DFC00070222493B6813430B60204B1B6803F01E
:101E0C0007033A689A4201D0012332E07B681B68D1
:101E1C0003F00403002B08D0194B5B6823F4E06239
:101E2C007B68DB68164913434B607B681B6803F0C7
:101E3C000803002B09D0124B5B6823F460527B68BB
:101E4C001B69DB000E4913434B6000F021F802467E
:101E5C000B4B5B681B0903F00F030A49CB5C22FA9E
:101E6C0003F3094A1360094B1B681846FFF78AF9FC
:101E7C00002318461037BD4680BD00BF002002402D
:101E8C0000100240B4270008440000204800002045
:101E9C0080B487B000AF0023FB600023BB6000233D
:101EAC007B6100237B6000233B611E4B5B68FB6006
:101EBC00FB6803F00C03042B02D0082B03D027E0A3
:101ECC00194B3B6127E0FB689B0C03F00F03174A8F
:101EDC00D35C7B60FB6803F48033002B10D0114B78
:101EEC005B685B0C03F00103114AD35CBB607B683D
:101EFC000D4A02FB03F2BB68B2FBF3F37B6104E017
:101F0C007B680C4A02FB03F37B617B693B6102E05B
:101F1C00054B3B6100BF3B6918461C37BD4680BC76
:101F2C00704700BF0010024000127A00C42700085E
:101F3C00D427000800093D0080B485B000AF78605C
:101F4C000A4B1B680A4AA2FB03235B0A7A6802FB52
:101F5C0003F3FB6000BFFB685A1EFA60002BF9D13B
:101F6C0000BF00BF1437BD4680BC70474400002042
:101F7C00D34D621080B582B000AF78607B68002BC7
:101F8C0001D1012341E07B6893F83D30DBB2002B9B
:101F9C0006D17B68002283F83C207868FEF79AFF14
:101FAC007B68022283F83D207B681A687B680433C7
:101FBC001946104600F056FA7B68012283F8462039
:101FCC007B68012283F83E207B68012283F83F2046
:101FDC007B68012283F840207B68012283F8412032
:101FEC007B68012283F842207B68012283F843201E
:101FFC007B68012283F844207B68012283F845200A
:10200C007B68012283F83D20002318460837BD4623
:10201C0080BD000080B485B000AF78607B6893F819
:10202C003D30DBB2012B01D0012335E07B6802226D
:10203C0083F83D207B681B68DA687B681B6842F07C
:10204C000102DA607B681B68164A934209D07B68F0
:10205C001B68B3F1804F04D07B681B68124A934213
:10206C0011D17B681B689B6803F00703FB60FB685E
:10207C00062B10D07B681B681A687B681B6842F0C3
:10208C0001021A6007E07B681B681A687B681B6892
:10209C0042F001021A60002318461437BD4680BC7A
:1020AC00704700BF002C01400004004080B584B094
:1020BC0000AF78607B681B68DB68FB607B681B6823
:1020CC001B69BB60BB6803F00203002B20D0FB68CC
:1020DC0003F00203002B1BD07B681B686FF002021D
:1020EC001A617B6801221A777B681B689B6903F075
:1020FC000303002B03D0786800F098F905E07868AA
:10210C0000F08BF9786800F09AF97B6800221A7756
:10211C00BB6803F00403002B20D0FB6803F004031E
:10212C00002B1BD07B681B686FF004021A617B6864
:10213C0002221A777B681B689B6903F44073002B9F
:10214C0003D0786800F072F905E0786800F065F962
:10215C00786800F074F97B6800221A77BB6803F08A
:10216C000803002B20D0FB6803F00803002B1BD0C6
:10217C007B681B686FF008021A617B6804221A776F
:10218C007B681B68DB6903F00303002B03D07868C2
:10219C0000F04CF905E0786800F03FF9786800F041
:1021AC004EF97B6800221A77BB6803F01003002BF2
:1021BC0020D0FB6803F01003002B1BD07B681B683E
:1021CC006FF010021A617B6808221A777B681B6813
:1021DC00DB6903F44073002B03D0786800F026F918
:1021EC0005E0786800F019F9786800F028F97B6848
:1021FC0000221A77BB6803F00103002B0CD0FB689C
:10220C0003F00103002B07D07B681B686FF0010201
:10221C001A617868FEF7B0FDBB6803F08003002BF1
:10222C000CD0FB6803F08003002B07D07B681B6885
:10223C006FF080021A61786800F06FFABB6803F0E7
:10224C004003002B0CD0FB6803F04003002B07D09D
:10225C007B681B686FF040021A61786800F0F8F830
:10226C00BB6803F02003002B0CD0FB6803F02003A9
:10227C00002B07D07B681B686FF020021A6178680E
:10228C0000F042FA00BF1037BD4680BD80B584B067
:10229C0000AF786039600023FB737B6893F83C30A7
:1022AC00012B01D10223B4E07B68012283F83C208E
:1022BC007B68022283F83D207B681B689B68BB60AF
:1022CC00BB6823F07703BB60BB6823F47F43BB6020
:1022DC007B681B68BA689A603B681B68B3F5005F43
:1022EC003ED0B3F5005F00F28780B3F5805F00F05D
:1022FC008680B3F5805F7FD8702B1AD0702B7BD87B
:10230C00602B50D0602B77D8502B3CD0502B73D8EF
:10231C00402B58D0402B6FD8302B64D0302B6BD83F
:10232C00202B60D0202B67D8002B5CD0102B5AD0E0
:10233C0062E07B6818683B6899683B685A683B6840
:10234C00DB6800F06AF97B681B689B68BB60BB6844
:10235C0043F07703BB607B681B68BA689A604FE0F8
:10236C007B6818683B6899683B685A683B68DB680F
:10237C0000F053F97B681B689A687B681B6842F411
:10238C0080429A603CE07B6818683B6859683B68FF
:10239C00DB681A4600F0CAF87B681B6850211846A7
:1023AC0000F021F92CE07B6818683B6859683B68A1
:1023BC00DB681A4600F0E8F87B681B686021184659
:1023CC0000F011F91CE07B6818683B6859683B68A1
:1023DC00DB681A4600F0AAF87B681B684021184697
:1023EC0000F001F90CE07B681A683B681B68194621
:1023FC00104600F0F8F803E00123FB7300E000BF87
:10240C007B68012283F83D207B68002283F83C2006
:10241C00FB7B18461037BD4680BD80B483B000AF3F
:10242C00786000BF0C37BD4680BC704780B483B069
:10243C0000AF786000BF0C37BD4680BC704780B4DD
:10244C0083B000AF786000BF0C37BD4680BC7047CE
:10245C0080B483B000AF786000BF0C37BD4680BC41
:10246C007047000080B485B000AF786039607B683D
:10247C001B68FB607B682B4A934207D07B68B3F1E7
:10248C00804F03D07B68284A934208D1FB6823F025
:10249C007003FB603B685B68FA681343FB607B6806
:1024AC00204A934207D07B68B3F1804F03D07B68FE
:1024BC001D4A934208D1FB6823F44073FB603B68D0
:1024CC00DB68FA681343FB60FB6823F080023B680F
:1024DC005B691343FB607B68FA681A603B689A6817
:1024EC007B68DA623B681A687B689A627B680D4A83
:1024FC00934203D13B681A697B681A637B6801229B
:10250C005A617B681B6903F00103002B05D07B68C3
:10251C001B6923F001027B681A6100BF1437BD46AA
:10252C0080BC7047002C01400004004080B487B090
:10253C0000AFF860B9607A60FB681B6A7B61FB686E
:10254C001B6A23F00102FB681A62FB689B693B6102
:10255C003B6923F0F0033B617B681B013A69134331
:10256C003B617B6923F00A037B617A69BB68134387
:10257C007B61FB683A699A61FB687A691A6200BFF1
:10258C001C37BD4680BC704780B487B000AFF86084
:10259C00B9607A60FB681B6A7B61FB681B6A23F07D
:1025AC001002FB681A62FB689B693B613B6923F470
:1025BC0070433B617B681B033A6913433B617B6946
:1025CC0023F0A0037B61BB681B017A6913437B6119
:1025DC00FB683A699A61FB687A691A6200BF1C371A
:1025EC00BD4680BC704780B485B000AF7860396060
:1025FC007B689B68FB60FB6823F07003FB603A68A8
:10260C00FB68134343F00703FB607B68FA689A602E
:10261C0000BF1437BD4680BC704780B487B000AF94
:10262C00F860B9607A603B60FB689B687B617B6992
:10263C0023F47F437B613B681A027B681A43BB68B7
:10264C0013437A6913437B61FB687A699A6000BF14
:10265C001C37BD4680BC704780B485B000AF786035
:10266C0039607B6893F83C30012B01D1022341E0A7
:10267C007B68012283F83C207B68022283F83D2092
:10268C007B681B685B68FB607B681B689B68BB6036
:10269C00FB6823F07003FB603B681B68FA6813430C
:1026AC00FB607B681B68FA685A607B681B68144A7D
:1026BC00934209D07B681B68B3F1804F04D07B68D0
:1026CC001B68104A93420CD1BB6823F08003BB609B
:1026DC003B685B68BA681343BB607B681B68BA686D
:1026EC009A607B68012283F83D207B68002283F886
:1026FC003C20002318461437BD4680BC704700BFF1
:10270C00002C01400004004080B483B000AF78601E
:10271C0000BF0C37BD4680BC704780B483B000AF9F
:10272C00786000BF0C37BD4680BC704770B5002682
:10273C000C4D0D4C641BA410A64209D100F022F8DC
:10274C0000260A4D0A4C641BA410A64205D170BD8C
:10275C0055F8043B98470136EEE755F8043B98478B
:10276C000136F2E7D8270008D8270008D827000838
:10277C00DC27000803460244934200D1704703F85B
:10278C00011BF9E7F8B500BFF8BC08BC9E467047C2
:0C279C00F8B500BFF8BC08BC9E467047B2
:1027A8000500000002000000030000000000000017
:1027B80000000000010203040607080902030405DB
:1027C800060708090A0B0C0D0E0F10100102000075
:0427D80031010008C3
:0427DC000D010008E3
:1027E0000008014000080140000801400200040008
:1027F00008000000010000000100000001000000CE
:10280000F4010000050000000200000003000000C9
:1028100088130000D0070000B80B0000050000007E
:102820000300000000127A00100000000100000008
:0400000508001119C5
:00000001FF
